:1000000075803875A00175A00075800E75A001750A
:10001000A00075800675A00175A00075800175A00F
:100020000175A00075808075A00175A0007580A97C
:1000300075A00375A0027580C075A00175A000753C
:1000400080AC75A00375A00275808175A00175A0B4
:10005000007580BD75A00375A0027580C175A001F3
:1000600075A0007580C075A00375A00275808275AB
:10007000A00175A00075802075A00375A002758091
:10008000C275A00175A0007580AD75A00375A002B2
:1000900075808375A00175A0007580A075A003759B
:1000A000A0027580C375A00175A0007580B175A010
:1000B0000375A00275808475A00175A0007580ABE2
:1000C00075A00375A0027580C475A00175A00075A8
:1000D00080AF75A00375A00275808575A00175A01D
:0C00E000007580A275A00375A00280FED0
:00000001FF
